{
  "_format": "hh-sol-artifact-1",
  "contractName": "BitcoinEscrow",
  "sourceName": "contracts/BitcoinEscrow.sol",
  "abi": [
    {
      "inputs": [
        {
          "internalType": "address",
          "name": "_seller",
          "type": "address"
        }
      ],
      "stateMutability": "payable",
      "type": "constructor"
    },
    {
      "inputs": [
        {
          "internalType": "address",
          "name": "owner",
          "type": "address"
        }
      ],
      "name": "OwnableInvalidOwner",
      "type": "error"
    },
    {
      "inputs": [
        {
          "internalType": "address",
          "name": "account",
          "type": "address"
        }
      ],
      "name": "OwnableUnauthorizedAccount",
      "type": "error"
    },
    {
      "anonymous": false,
      "inputs": [
        {
          "indexed": true,
          "internalType": "address",
          "name": "party",
          "type": "address"
        }
      ],
      "name": "DisputeInitiated",
      "type": "event"
    },
    {
      "anonymous": false,
      "inputs": [
        {
          "indexed": true,
          "internalType": "address",
          "name": "buyer",
          "type": "address"
        },
        {
          "indexed": false,
          "internalType": "uint256",
          "name": "amount",
          "type": "uint256"
        }
      ],
      "name": "FundsLocked",
      "type": "event"
    },
    {
      "anonymous": false,
      "inputs": [
        {
          "indexed": true,
          "internalType": "address",
          "name": "seller",
          "type": "address"
        }
      ],
      "name": "FundsReleased",
      "type": "event"
    },
    {
      "anonymous": false,
      "inputs": [
        {
          "indexed": true,
          "internalType": "address",
          "name": "previousOwner",
          "type": "address"
        },
        {
          "indexed": true,
          "internalType": "address",
          "name": "newOwner",
          "type": "address"
        }
      ],
      "name": "OwnershipTransferred",
      "type": "event"
    },
    {
      "inputs": [],
      "name": "amount",
      "outputs": [
        {
          "internalType": "uint256",
          "name": "",
          "type": "uint256"
        }
      ],
      "stateMutability": "view",
      "type": "function"
    },
    {
      "inputs": [],
      "name": "bitcoinTxHash",
      "outputs": [
        {
          "internalType": "bytes32",
          "name": "",
          "type": "bytes32"
        }
      ],
      "stateMutability": "view",
      "type": "function"
    },
    {
      "inputs": [],
      "name": "buyer",
      "outputs": [
        {
          "internalType": "address",
          "name": "",
          "type": "address"
        }
      ],
      "stateMutability": "view",
      "type": "function"
    },
    {
      "inputs": [],
      "name": "disputeDeadline",
      "outputs": [
        {
          "internalType": "uint256",
          "name": "",
          "type": "uint256"
        }
      ],
      "stateMutability": "view",
      "type": "function"
    },
    {
      "inputs": [],
      "name": "fundsReleased",
      "outputs": [
        {
          "internalType": "bool",
          "name": "",
          "type": "bool"
        }
      ],
      "stateMutability": "view",
      "type": "function"
    },
    {
      "inputs": [],
      "name": "initiateDispute",
      "outputs": [],
      "stateMutability": "nonpayable",
      "type": "function"
    },
    {
      "inputs": [],
      "name": "owner",
      "outputs": [
        {
          "internalType": "address",
          "name": "",
          "type": "address"
        }
      ],
      "stateMutability": "view",
      "type": "function"
    },
    {
      "inputs": [],
      "name": "releaseFunds",
      "outputs": [],
      "stateMutability": "nonpayable",
      "type": "function"
    },
    {
      "inputs": [],
      "name": "renounceOwnership",
      "outputs": [],
      "stateMutability": "nonpayable",
      "type": "function"
    },
    {
      "inputs": [],
      "name": "seller",
      "outputs": [
        {
          "internalType": "address",
          "name": "",
          "type": "address"
        }
      ],
      "stateMutability": "view",
      "type": "function"
    },
    {
      "inputs": [
        {
          "internalType": "bytes32",
          "name": "_txHash",
          "type": "bytes32"
        }
      ],
      "name": "setBitcoinTxHash",
      "outputs": [],
      "stateMutability": "nonpayable",
      "type": "function"
    },
    {
      "inputs": [
        {
          "internalType": "address",
          "name": "newOwner",
          "type": "address"
        }
      ],
      "name": "transferOwnership",
      "outputs": [],
      "stateMutability": "nonpayable",
      "type": "function"
    }
  ],
  "bytecode": "0x6080604052604051610f2f380380610f2f833981810160405281019061002591906102e5565b33600073ffffffffffffffffffffffffffffffffffffffff168173ffffffffffffffffffffffffffffffffffffffff16036100985760006040517f1e4fbdf700000000000000000000000000000000000000000000000000000000815260040161008f9190610321565b60405180910390fd5b6100a7816101be60201b60201c565b5033600160006101000a81548173ffffffffffffffffffffffffffffffffffffffff021916908373ffffffffffffffffffffffffffffffffffffffff16021790555080600260006101000a81548173ffffffffffffffffffffffffffffffffffffffff021916908373ffffffffffffffffffffffffffffffffffffffff1602179055503460038190555062093a80426101409190610375565b600681905550600160009054906101000a900473ffffffffffffffffffffffffffffffffffffffff1673ffffffffffffffffffffffffffffffffffffffff167f1423e2a671bcc71c56f3c3cb78e3c96473d3ca5eb061acd0b93d1d0a6617f6586003546040516101b091906103b8565b60405180910390a2506103d3565b60008060009054906101000a900473ffffffffffffffffffffffffffffffffffffffff169050816000806101000a81548173ffffffffffffffffffffffffffffffffffffffff021916908373ffffffffffffffffffffffffffffffffffffffff1602179055508173ffffffffffffffffffffffffffffffffffffffff168173ffffffffffffffffffffffffffffffffffffffff167f8be0079c531659141344cd1fd0a4f28419497f9722a3daafe3b4186f6b6457e060405160405180910390a35050565b600080fd5b600073ffffffffffffffffffffffffffffffffffffffff82169050919050565b60006102b282610287565b9050919050565b6102c2816102a7565b81146102cd57600080fd5b50565b6000815190506102df816102b9565b92915050565b6000602082840312156102fb576102fa610282565b5b6000610309848285016102d0565b91505092915050565b61031b816102a7565b82525050565b60006020820190506103366000830184610312565b92915050565b6000819050919050565b7f4e487b7100000000000000000000000000000000000000000000000000000000600052601160045260246000fd5b60006103808261033c565b915061038b8361033c565b92508282019050808211156103a3576103a2610346565b5b92915050565b6103b28161033c565b82525050565b60006020820190506103cd60008301846103a9565b92915050565b610b4d806103e26000396000f3fe608060405234801561001057600080fd5b50600436106100b45760003560e01c806384adc21f1161007157806384adc21f146101315780638da5cb5b1461014f5780639ca9f5f11461016d578063aa8c217c14610189578063b564e926146101a7578063f2fde38b146101c5576100b4565b806308551a53146100b9578063216e283f146100d75780634acc296f146100f557806369d89575146100ff578063715018a6146101095780637150d8ae14610113575b600080fd5b6100c16101e1565b6040516100ce9190610852565b60405180910390f35b6100df610207565b6040516100ec9190610886565b60405180910390f35b6100fd61020d565b005b61010761037f565b005b6101116104c4565b005b61011b6104d8565b6040516101289190610852565b60405180910390f35b6101396104fe565b60405161014691906108ba565b60405180910390f35b610157610504565b6040516101649190610852565b60405180910390f35b61018760048036038101906101829190610906565b61052d565b005b61019161061f565b60405161019e9190610886565b60405180910390f35b6101af610625565b6040516101bc919061094e565b60405180910390f35b6101df60048036038101906101da9190610995565b610638565b005b600260009054906101000a900473ffffffffffffffffffffffffffffffffffffffff1681565b60065481565b600160009054906101000a900473ffffffffffffffffffffffffffffffffffffffff1673ffffffffffffffffffffffffffffffffffffffff163373ffffffffffffffffffffffffffffffffffffffff1614806102b65750600260009054906101000a900473ffffffffffffffffffffffffffffffffffffffff1673ffffffffffffffffffffffffffffffffffffffff163373ffffffffffffffffffffffffffffffffffffffff16145b6102f5576040517f08c379a00000000000000000000000000000000000000000000000000000000081526004016102ec90610a1f565b60405180910390fd5b60065442111561033a576040517f08c379a000000000000000000000000000000000000000000000000000000000815260040161033190610a8b565b60405180910390fd5b3373ffffffffffffffffffffffffffffffffffffffff167fdad56d2d81fd6e7af68edb2bd38935358747b828fbc4be904f40daa50a9fc6f960405160405180910390a2565b6103876106be565b600560009054906101000a900460ff16156103d7576040517f08c379a00000000000000000000000000000000000000000000000000000000081526004016103ce90610af7565b60405180910390fd5b6001600560006101000a81548160ff021916908315150217905550600260009054906101000a900473ffffffffffffffffffffffffffffffffffffffff1673ffffffffffffffffffffffffffffffffffffffff166108fc6003549081150290604051600060405180830381858888f1935050505015801561045c573d6000803e3d6000fd5b50600260009054906101000a900473ffffffffffffffffffffffffffffffffffffffff1673ffffffffffffffffffffffffffffffffffffffff167f3799216a76035eed25624e7931f56aa5c61e577072427e0598a2549ed8692dab60405160405180910390a2565b6104cc6106be565b6104d66000610745565b565b600160009054906101000a900473ffffffffffffffffffffffffffffffffffffffff1681565b60045481565b60008060009054906101000a900473ffffffffffffffffffffffffffffffffffffffff16905090565b600160009054906101000a900473ffffffffffffffffffffffffffffffffffffffff1673ffffffffffffffffffffffffffffffffffffffff163373ffffffffffffffffffffffffffffffffffffffff1614806105d65750600260009054906101000a900473ffffffffffffffffffffffffffffffffffffffff1673ffffffffffffffffffffffffffffffffffffffff163373ffffffffffffffffffffffffffffffffffffffff16145b610615576040517f08c379a000000000000000000000000000000000000000000000000000000000815260040161060c90610a1f565b60405180910390fd5b8060048190555050565b60035481565b600560009054906101000a900460ff1681565b6106406106be565b600073ffffffffffffffffffffffffffffffffffffffff168173ffffffffffffffffffffffffffffffffffffffff16036106b25760006040517f1e4fbdf70000000000000000000000000000000000000000000000000000000081526004016106a99190610852565b60405180910390fd5b6106bb81610745565b50565b6106c6610809565b73ffffffffffffffffffffffffffffffffffffffff166106e4610504565b73ffffffffffffffffffffffffffffffffffffffff161461074357610707610809565b6040517f118cdaa700000000000000000000000000000000000000000000000000000000815260040161073a9190610852565b60405180910390fd5b565b60008060009054906101000a900473ffffffffffffffffffffffffffffffffffffffff169050816000806101000a81548173ffffffffffffffffffffffffffffffffffffffff021916908373ffffffffffffffffffffffffffffffffffffffff1602179055508173ffffffffffffffffffffffffffffffffffffffff168173ffffffffffffffffffffffffffffffffffffffff167f8be0079c531659141344cd1fd0a4f28419497f9722a3daafe3b4186f6b6457e060405160405180910390a35050565b600033905090565b600073ffffffffffffffffffffffffffffffffffffffff82169050919050565b600061083c82610811565b9050919050565b61084c81610831565b82525050565b60006020820190506108676000830184610843565b92915050565b6000819050919050565b6108808161086d565b82525050565b600060208201905061089b6000830184610877565b92915050565b6000819050919050565b6108b4816108a1565b82525050565b60006020820190506108cf60008301846108ab565b92915050565b600080fd5b6108e3816108a1565b81146108ee57600080fd5b50565b600081359050610900816108da565b92915050565b60006020828403121561091c5761091b6108d5565b5b600061092a848285016108f1565b91505092915050565b60008115159050919050565b61094881610933565b82525050565b6000602082019050610963600083018461093f565b92915050565b61097281610831565b811461097d57600080fd5b50565b60008135905061098f81610969565b92915050565b6000602082840312156109ab576109aa6108d5565b5b60006109b984828501610980565b91505092915050565b600082825260208201905092915050565b7f556e617574686f72697a65640000000000000000000000000000000000000000600082015250565b6000610a09600c836109c2565b9150610a14826109d3565b602082019050919050565b60006020820190508181036000830152610a38816109fc565b9050919050565b7f446973707574652077696e646f7720636c6f7365640000000000000000000000600082015250565b6000610a756015836109c2565b9150610a8082610a3f565b602082019050919050565b60006020820190508181036000830152610aa481610a68565b9050919050565b7f46756e647320616c72656164792072656c656173656400000000000000000000600082015250565b6000610ae16016836109c2565b9150610aec82610aab565b602082019050919050565b60006020820190508181036000830152610b1081610ad4565b905091905056fea26469706673582212208e54181c91c4306ecb96a343dd14555d5fb00b9f87aceb20e4ebfddeb4fe4aef64736f6c634300081c0033",
  "linkReferences": {},
  "deployedLinkReferences": {}
}